S010000046756C6C436F64652E7372656306
S11300000C942A000C9447000C9447000C9447006D
S11300100C9447000C9447000C9447000C94470040
S11300200C9447000C9447000C9447000C94470030
S11300300C9447000C9447000C9447000C94470020
S11300400C9447000C9447000C9447000C94470010
S11300500C94470011241FBECFE5D8E0DEBFCDBF0E
S113006011E0A0E6B0E0E8E5FEE002C005900D92E4
S1130070A831B107D9F721E0A8E1B1E001C01D9290
S1130080AD31B207E1F70E9407040C942A070C94DF
S1130090000098B39F70282F207F922B98BB98B3B1
S11300A09E7F98BB98B3926098BB32E03A95F1F783
S11300B000C098B39D7F98BBEFE8F1E03197F1F76A
S11300C000C0000028B3F0E18F9FC0011124922FDB
S11300D09F70892B88BB88B3826088BB32E03A95D5
S11300E0F1F700C088B38D7F88BB8FE99FE001974B
S11300F0F1F700C00000089598B39F70282F207F67
S1130100922B98BB98B3916098BB98B3926098BBBC
S113011032E03A95F1F700C098B39D7F98BBEFE8C1
S1130120F1E03197F1F700C0000028B3F0E18F9FB0
S1130130C0011124922F9F70892B88BB88B38260E1
S113014088BB32E03A95F1F700C088B38D7F88BB55
S11301508FE99FE00197F1F700C0000008958FEF49
S113016087BB8FE39CE90197F1F700C0000083E3AC
S11301700E94490082E30E94490088E20E944900EB
S11301808CE00E94490086E00E94490081E00E94C0
S113019049008FE99FE00197F1F700C0000080E873
S11301A00E94490008950F931F93CF93DF938C010E
S11301B0C0E0D0E003C00E947C002196F801EC0F5F
S11301C0FD1F80818111F7CFDF91CF911F910F9196
S11301D0089581E00E9449008FE99FE00197F1F7BB
S11301E000C0000080E80E944900089580EF84BBAD
S11301F08FEF85BB85B38F7085BB000083B38F7091
S113020080931B018F30B1F78FE39CE90197F1F7DD
S113021000C0000083B38F7080931B018F30A1F363
S11302208FEE85BB000083B38F7080931B018F30EA
S113023019F010921C0127C08FED85BB000083B319
S11302408F7080931B018F3021F081E080931C011B
S11302501AC08FEB85BB000083B38F7080931B01A2
S11302608F3021F082E080931C010DC08FE785BBA5
S1130270000083B38F7080931B018F3009F4B6CFD5
S113028083E080931C0180911B018E3071F4809176
S11302901C0190E0FC01EE0FFF1F8E0F9F1FFC015D
S11302A0E05AFF4F8081805308958D3071F480911E
S11302B01C0190E0FC01EE0FFF1F8E0F9F1FFC013D
S11302C0E05AFF4F8181805308958B3071F48091FF
S11302D01C0190E0FC01EE0FFF1F8E0F9F1FFC011D
S11302E0E05AFF4F82818053089580911C0190E071
S11302F00196FC01EE0FFF1F8E0F9F1FFC01E05AB9
S1130300FF4F8081805308951ABA87E886B980E444
S113031087B9089597B18F70982B97B986B1806487
S113032086B9349BFECF8AE18A95F1F700C024B1E7
S113033085B190E0982F8827820F911D08952AB1E6
S113034028612AB920B5266820BDDC01CB01880FBD
S1130350991FAA1FBB1F880F991FAA1FBB1F9C01AF
S1130360AD01220F331F441F551F220F331F441F9B
S1130370551F60E072E18AE790E00E94FF068FEF6C
S1130380820F89B9DA01C9010197A109B109892F3D
S11303909A2FAB2FBB2780BD08955F9BFECF8CB1F6
S11303A0089591B321E030E002C0220F331F8A95F3
S11303B0E2F7292B21BB089542B321E030E0B901D3
S11303C002C0660F771F8A95E2F7CB01462B42BB2A
S11303D078E27A95F1F792B38095892382BB0895E8
S11303E040E050E0BA010EC020B330E0082E02C055
S11303F0359527950A94E2F720FD0BC04F5F5F4FB8
S11304006F4F7F4F403C27E2520729E06207710596
S113041058F3403C574269407105C1F11FBC92E05A
S11304209EBD1DBC1CBC40E050E0BA0113C020B30B
S113043030E0082E02C0359527950A94E2F720FF94
S113044010C02CB53DB521363A4E58F44F5F5F4F7E
S11304506F4F7F4F403C27E2520729E06207710546
S113046030F3403C57426940710599F08CB59DB515
S1130470A0E0B0E01EBC81362AEE9207A105B105CA
S113048058F4B695A7959795879508958FEF9FEFA4
S113049008958EEF9FEF08958EEF9FEF08950F93C9
S11304A01F93CF93DF93C82FD62F8A010E94D101C7
S11304B08C2F0E94DC018D2F0E94F001BC0180E092
S11304C090E00E94E00526E933E44BE05DE30E94FE
S11304D0920620E030E040E05FE30E9492060E9432
S11304E0AA05601771071CF481E090E002C080E067
S11304F090E0DF91CF911F910F910895CF92DF92F9
S1130500EF92FF9210921A011092190110921801A1
S113051080E033C09BB391609BBB9AE19A95F1F75D
S113052000C0C99B11C047E050E0481B510921E0BD
S113053030E002C0220F331F4A95E2F790911A016E
S1130540292B20931A0111C047E050E0481B5109A0
S113055021E030E002C0220F331F4A95E2F72095D4
S113056090911A01292320931A019BB39E7F9BBB70
S11305709DE09A95F1F700008F5F883058F280E093
S11305803EC09BB391609BBB9AE19A95F1F700C082
S1130590C99B16C04FE050E0481B510921E030E0F0
S11305A002C0220F331F4A95E2F74091180150917F
S11305B01901242B352B309319012093180117C0EE
S11305C04FE050E0481B510921E030E002C0220F07
S11305D0331F4A95E2F720953095409118015091C8
S11305E019012423352330931901209318019BB357
S11305F09E7F9BBB9DE09A95F1F700008F5F803151
S113060008F4BFCF809118019091190196958795B0
S1130610909319018093180160911A0160FF05C03D
S113062090689093190180931801669560931A015C
S113063070E080E090E00E94E20524E632EA48E6B9
S113064050E40E9492066B017C0160911801709144
S1130650190180E090E00E94E00523E33BED4CE8C3
S113066056E40E9438059B01AC01C701B6010E9403
S1130670C704FF90EF90DF90CF90089589E683BF81
S113068087B3886087BB089580E884BB15BA85BBAF
S1130690EFECF7E03197F1F700C0000015BAFFEF77
S11306A023ED30E3F15020403040E1F700C000007A
S11306B085BB87EB9BE00197F1F700C0000015BAFA
S11306C09FEFE3EDF0E39150E040F040E1F700C02C
S11306D00000089580E884BB15BA85BB8FEC97E0D1
S11306E00197F1F700C0000015BA9FEF23ED80E3F6
S11306F0915020408040E1F700C00000089584E05C
S113070087BB88BB88BBEFECF7E03197F1F700C0FB
S1130710000018BAFFEF23ED30E3F15020403040E1
S1130720E1F700C0000088BB87EB9BE00197F1F77D
S113073000C0000018BA9FEFE3EDF0E39150E040F1
S1130740F040E1F700C00000089584E087BB88BB57
S113075084E088BB8FEC97E00197F1F700C00000BC
S113076018BA9FEF23ED80E3915020408040E1F7D9
S113077000C00000EDCFCF92DF92EF92FF92CF93B3
S1130780DF93EC010E94E9008CE690E00E94D30024
S11307904AE050E064E083E00E944F02019751F583
S11307A00E94E9008BE790E00E94D3000E9444037A
S11307B00E947E026B017C01BE010D2E000C880B91
S11307C0990B0E94E2059B01AC01C701B6010E948E
S11307D0330518166CF70E946A030E947F032FEFFB
S11307E083ED90E3215080409040E1F700C0000089
S11307F00E94A5030E94E90083E890E00E94D300D0
S1130800DF91CF91FF90EF90DF90CF900895CF9339
S1130810DF93CDB7DEB72C970FB6F894DEBF0FBECB
S1130820CDBF0E94AF002FE788E391E021508040C4
S11308309040E1F700C000000E9484010E943E0342
S113084060E875E280E090E00E949F018FE290E30F
S11308509A8389831C821B82FE01359688E0DF011E
S11308601D928A95E9F734978FE0DF011D928A95EE
S1130870E9F70E94E9008EE890E00E94D30080EC42
S11308800E94490086E990E00E94D30084E081BB85
S11308904CE050E066E085E00E944F02019739F099
S11308A00E94E90082EA90E00E94D300FFCF0E94F8
S11308B0E9000DC081EB90E00E94D30080EC0E941F
S11308C049008EEB90E00E94D30084E082BB82E07A
S11308D00E948A01843891056CF312BACC9BD8CF5C
S11308E00E94E90089EC90E00E94D30000E010E04F
S11308F00BC00E94CD01E1E0F0E0EC0FFD1FE00F22
S1130900F11F80830F5F1F4F0C30110594F30E9479
S1130910E90067ED70E0CE0101960E942107892B62
S1130920F1F484EE90E00E94D30080EC0E94490030
S113093084EF90E00E94D3000E94F60090E08330A0
S1130940910529F482E390E00E94BB03A1CF0497B0
S113095009F09ECF86E490E00E94BB0399CF0E94E9
S1130960E90085E091E00E94D30080EC0E944900F8
S113097082E191E00E94D300BFEF2DE389E4B150FE
S113098020408040E1F700C0000082CF5058BB27D0
S1130990AA270E94DE040C9458060E944A0638F0E6
S11309A00E94510620F039F49F3F19F426F40C9468
S11309B047060EF4E095E7FB0C944106E92F0E94EC
S11309C0690658F3BA17620773078407950720F07E
S11309D079F4A6F50C948B060EF4E0950B2EBA2F41
S11309E0A02D0B01B90190010C01CA01A001112431
S11309F0FF27591B99F0593F50F4503E68F11A16DD
S1130A00F040A22F232F342F4427585FF3CF46956D
S1130A1037952795A795F0405395C9F77EF41F168F
S1130A20BA0B620B730B840BBAF09150A1F0FF0F59
S1130A30BB1F661F771F881FC2F70EC0BA0F621F45
S1130A40731F841F48F4879577956795B795F79535
S1130A509E3F08F0B0CF9395880F08F09927EE0FCA
S1130A609795879508950E941D0608F481E00895DE
S1130A700E944C050C9458060E94510658F00E949E
S1130A804A0640F029F45F3F29F00C9441065111C5
S1130A900C948C060C9447060E94690668F399230B
S1130AA0B1F3552391F3951B550BBB27AA27621766
S1130AB07307840738F09F5F5F4F220F331F441F73
S1130AC0AA1FA9F335D00E2E3AF0E0E832D09150A7
S1130AD05040E695001CCAF72BD0FE2F29D0660F94
S1130AE0771F881FBB1F261737074807AB07B0E8D7
S1130AF009F0BB0B802DBF01FF2793585F4F3AF0DD
S1130B009E3F510578F00C9441060C948C065F3F8F
S1130B10E4F3983ED4F3869577956795B795F79562
S1130B209F5FC9F7880F911D9695879597F908954A
S1130B30E1E0660F771F881FBB1F621773078407E6
S1130B40BA0720F0621B730B840BBA0BEE1F88F7F5
S1130B50E09508950E94B1056894B1110C948C0637
S1130B6008950E94710688F09F5798F0B92F99272D
S1130B70B751B0F0E1F0660F771F881F991F1AF084
S1130B80BA95C9F714C0B13091F00E948B06B1E058
S1130B9008950C948B06672F782F8827B85F39F057
S1130BA0B93FCCF3869577956795B395D9F73EF41D
S1130BB090958095709561957F4F8F4F9F4F0895C5
S1130BC0E89409C097FB3EF49095809570956195E3
S1130BD07F4F8F4F9F4F9923A9F0F92F96E9BB2799
S1130BE09395F695879577956795B795F111F8CF15
S1130BF0FAF4BB0F11F460FF1BC06F5F7F4F8F4F80
S1130C009F4F16C0882311F096E911C0772321F075
S1130C109EE8872F762F05C0662371F096E8862F0D
S1130C2070E060E02AF09A95660F771F881FDAF764
S1130C30880F9695879597F90895990F0008550F91
S1130C40AA0BE0E8FEEF16161706E807F907C0F04E
S1130C5012161306E407F50798F0621B730B840B56
S1130C60950B39F40A2661F0232B242B252B21F430
S1130C7008950A2609F4A140A6958FEF811D811DD0
S1130C80089597F99F6780E870E060E008959FEF0A
S1130C9080EC089500240A9416161706180609060F
S1130CA0089500240A9412161306140605060895DE
S1130CB0092E0394000C11F4882352F0BB0F40F466
S1130CC0BF2B11F460FF04C06F5F7F4F8F4F9F4FA6
S1130CD0089557FD9058440F551F59F05F3F71F028
S1130CE04795880F97FB991F61F09F3F79F087958F
S1130CF00895121613061406551FF2CF4695F1DF18
S1130D0008C0161617061806991FF1CF86957105A7
S1130D10610508940895E894BB2766277727CB01DB
S1130D2097F908950E94A5060C9458060E944A0655
S1130D3038F00E94510620F0952311F00C944106DE
S1130D400C94470611240C948C060E94690670F3D7
S1130D50959FC1F3950F50E0551F629FF001729F5C
S1130D60BB27F00DB11D639FAA27F00DB11DAA1F6B
S1130D70649F6627B00DA11D661F829F2227B00DB8
S1130D80A11D621F739FB00DA11D621F839FA00D43
S1130D90611D221F749F3327A00D611D231F849F93
S1130DA0600D211D822F762F6A2F11249F575040EA
S1130DB09AF0F1F088234AF0EE0FFF1FBB1F661F65
S1130DC0771F881F91505040A9F79E3F510580F02E
S1130DD00C9441060C948C065F3FE4F3983ED4F3E4
S1130DE0869577956795B795F795E7959F5FC1F7D2
S1130DF0FE2B880F911D9695879597F90895A1E28A
S1130E001A2EAA1BBB1BFD010DC0AA1FBB1FEE1F80
S1130E10FF1FA217B307E407F50720F0A21BB30BCB
S1130E20E40BF50B661F771F881F991F1A9469F747
S1130E3060957095809590959B01AC01BD01CF01A3
S1130E400895FB01DC018D91019080190110D9F303
S10B0E50990B0895F894FFCFFB
S1130E583132333435363738392A3023506C6163AC
S1130E68652074686520426F776C005072657373EF
S1130E78203200506C61636520426F776C005765BF
S1130E886C636F6D6500507265737320537461727F
S1130E9874004C6F77206D696C6B206C6576656C9B
S1130EA8004D696C6B2048656174696E6700696EF2
S1130EB82050726F636573730053686F77205246CE
S1130EC84944207461670031323334353637383950
S1130ED83031320053656C6563742054686520535F
S1130EE8697A6500333A20536D616C6C20343A4C4E
S1130EF86172676500556E726567697374657265BA
S10B0F086400557365720000DA
S9030000FC
