S010000046756C6C436F64652E7372656306
S11300000C942A000C9447000C9447000C9447006D
S11300100C9447000C9447000C9447000C94470040
S11300200C9447000C9447000C9447000C94470030
S11300300C9447000C9447000C9447000C94470020
S11300400C9447000C9447000C9447000C94470010
S11300500C94470011241FBECFE5D8E0DEBFCDBF0E
S113006011E0A0E6B0E0E0E8FBE002C005900D92EC
S1130070AE32B107D9F721E0AEE2B1E001C01D9282
S1130080A033B207E1F70E948F030C94BE050C94D1
S1130090000098B39F70282F207F922B98BB98B3B1
S11300A09E7F98BB98B3926098BB32E03A95F1F783
S11300B000C098B39D7F98BBEFE8F1E03197F1F76A
S11300C000C0000028B3F0E18F9FC0011124922FDB
S11300D09F70892B88BB88B3826088BB32E03A95D5
S11300E0F1F700C088B38D7F88BB8FE99FE001974B
S11300F0F1F700C00000089598B39F70282F207F67
S1130100922B98BB98B3916098BB98B3926098BBBC
S113011032E03A95F1F700C098B39D7F98BBEFE8C1
S1130120F1E03197F1F700C0000028B3F0E18F9FB0
S1130130C0011124922F9F70892B88BB88B38260E1
S113014088BB32E03A95F1F700C088B38D7F88BB55
S11301508FE99FE00197F1F700C0000008958FEF49
S113016087BB8FE39CE90197F1F700C0000083E3AC
S11301700E94490082E30E94490088E20E944900EB
S11301808CE00E94490086E00E94490081E00E94C0
S113019049008FE99FE00197F1F700C0000080E873
S11301A00E94490008950F931F93CF93DF938C010E
S11301B0C0E0D0E003C00E947C002196F801EC0F5F
S11301C0FD1F80818111F7CFDF91CF911F910F9196
S11301D0089581E00E9449008FE99FE00197F1F7BB
S11301E000C0000080E80E944900089580EF84BBAD
S11301F08FEF85BB85B38F7085BB000083B38F7091
S113020080932E018F30B1F78FE39CE90197F1F7CA
S113021000C0000083B38F7080932E018F30A1F350
S11302208FEE85BB000083B38F7080932E018F30D7
S113023019F010922F0127C08FED85BB000083B306
S11302408F7080932E018F3021F081E080932F01F5
S11302501AC08FEB85BB000083B38F7080932E018F
S11302608F3021F082E080932F010DC08FE785BB92
S1130270000083B38F7080932E018F3009F4B6CFC2
S113028083E080932F0180912E018E3071F4809150
S11302902F0190E0FC01EE0FFF1F8E0F9F1FFC014A
S11302A0E05AFF4F8081805308958D3071F480911E
S11302B02F0190E0FC01EE0FFF1F8E0F9F1FFC012A
S11302C0E05AFF4F8181805308958B3071F48091FF
S11302D02F0190E0FC01EE0FFF1F8E0F9F1FFC010A
S11302E0E05AFF4F82818053089580912F0190E05E
S11302F00196FC01EE0FFF1F8E0F9F1FFC01E05AB9
S1130300FF4F8081805308951ABA87E886B980E444
S113031087B9089597B18F70982B97B986B1806487
S113032086B9349BFECF8AE18A95F1F700C024B1E7
S113033085B190E0982F8827820F911D08952AB1E6
S113034028612AB920B5266820BDDC01CB01880FBD
S1130350991FAA1FBB1F880F991FAA1FBB1F9C01AF
S1130360AD01220F331F441F551F220F331F441F9B
S1130370551F60E072E18AE790E00E9493058FEFD9
S1130380820F89B9DA01C9010197A109B109892F3D
S11303909A2FAB2FBB2780BD08955F9BFECF8CB1F6
S11303A008959AB321E030E002C0220F331F8A95EA
S11303B0E2F7292B2ABB08954BB321E030E0B901C1
S11303C002C0660F771F8A95E2F7CB01462B4BBB21
S11303D078E27A95F1F79BB3809589238BBB0895D6
S11303E040E050E0BA010EC029B330E0082E02C04C
S11303F0359527950A94E2F720FD0BC04F5F5F4FB8
S11304006F4F7F4F403C27E2520729E06207710596
S113041058F3403C574269407105C1F11FBC92E05A
S11304209EBD1DBC1CBC40E050E0BA0113C029B302
S113043030E0082E02C0359527950A94E2F720FF94
S113044010C02CB53DB521363A4E58F44F5F5F4F7E
S11304506F4F7F4F403C27E2520729E06207710546
S113046030F3403C57426940710599F08CB59DB515
S1130470A0E0B0E01EBC81362AEE9207A105B105CA
S113048058F4B695A7959795879508958FEF9FEFA4
S113049008958EEF9FEF08958EEF9FEF08950F93C9
S11304A01F93CF93DF93C82FD62F8A010E94D101C7
S11304B08C2F0E94DC018D2F0E94F001BC0180E092
S11304C090E00E94980426E933E44BE05DE30E9447
S11304D0260520E030E040E05FE30E9426050E940C
S11304E06204601771071CF481E090E002C080E0B0
S11304F090E0DF91CF911F910F91089589E683BF1A
S113050087B3886087BB089580E282BB82BBEFEC2F
S1130510F7E03197F1F700C0000012BAFFEF23EDC6
S113052030E3F15020403040E1F700C0000082BBCE
S113053087EB9BE00197F1F700C0000012BA9FEF30
S1130540E3EDF0E39150E040F040E1F700C000003B
S1130550089580E282BB82BB8FEC97E00197F1F7AC
S113056000C0000012BA9FEF23ED80E391502040B9
S11305708040E1F700C00000089580E182BB82BBA7
S1130580EFECF7E03197F1F700C0000012BAFFEF8B
S113059023ED30E3F15020403040E1F700C000008B
S11305A082BB87EB9BE00197F1F700C0000012BA11
S11305B09FEFE3EDF0E39150E040F040E1F700C03D
S11305C00000089580E182BB82BB8FEC97E0019725
S11305D0F1F700C0000012BA9FEF23ED80E39150C1
S11305E020408040E1F700C000000895CF93DF93DE
S11305F0EC010E94E9008CE690E00E94D3002FEF0A
S113060080E792E0215080409040E1F700C0000074
S11306104AE050E065E083E00E944F02019709F050
S113062075C00E94E9008BE790E00E94D3002FEF91
S113063089E698E1215080409040E1F700C0000035
S11306400E94F600823009F067C00E948402CE0145
S11306500196C817D907DCF70E94A9022FEF89E693
S113066098E1215080409040E1F700C000000E94D2
S1130670BD022FEF83ED90E3215080409040E1F7DD
S113068000C000000E94E20282B3806482BB8FE15A
S11306909EE40197F1F700C0000012BA9FEF2DE32A
S11306A089E4915020408040E1F700C0000082B30B
S11306B0806882BB9FEF20E782E091502040804019
S11306C0E1F700C0000012BA9FEF23ED80E39150E0
S11306D020408040E1F700C000000E94E90089E862
S11306E090E00E94D30080EC0E94490084E990E0ED
S11306F00E94D3009FEF29E688E19150204080407A
S1130700E1F700C000000E94E90006C00E94E90071
S11307108AE990E00E94D300DF91CF910895CF93AE
S1130720DF93CDB7DEB72C970FB6F894DEBF0FBEBC
S1130730CDBF84EF81BB0E94AF002FE788E391E037
S1130740215080409040E1F700C000000E948401E5
S11307500E947E0260E875E280E090E00E949F01C2
S11307608FE290E39A8389831C821B82FE01359673
S113077088E0DF011D928A95E9F734978FE0DF0165
S11307801D928A95E9F70E94E90085EA90E00E94AB
S1130790D30080EC0E9449008DEA90E00E94D300CF
S11307A0BFEF29E688E1B15020408040E1F700C066
S11307B000004CE050E067E086E00E944F020197A1
S11307C039F00E94E90089EB90E00E94D300FFCF4A
S11307D00E94E90016C088EC90E00E94D30080ECEF
S11307E00E94490085ED90E00E94D3009FEFA3EDA5
S11307F0B0E39150A040B040E1F700C0000084E0B5
S113080082BB82E00E948A018438910524F312BAE3
S11308100E94F600813069F60E94E90080EE90E0C3
S11308200E94D30000E010E00BC00E94CD01E1E083
S1130830F0E0EC0FFD1FE00FF11F80830F5F1F4FEF
S11308400C30110594F30E94E9006EEE70E0CE01C5
S113085001960E94B505892BF1F48BEF90E00E947C
S1130860D30080EC0E9449008BE091E00E94D30009
S11308700E94F60090E08330910529F482E390E031
S11308800E94F60296CF049709F093CF86E490E095
S11308900E94F6028ECF0E94E9008CE191E00E9452
S11308A0D30080EC0E94490089E291E00E94D300C9
S11308B02FEF8DE399E4215080409040E1F700C090
S11308C0000077CF0E9469046894B1110C9420054C
S11308D008950E94050588F09F5798F0B92F99272D
S11308E0B751B0F0E1F0660F771F881F991F1AF017
S11308F0BA95C9F714C0B13091F00E941F05B1E058
S113090008950C941F05672F782F8827B85F39F056
S1130910B93FCCF3869577956795B395D9F73EF4AF
S113092090958095709561957F4F8F4F9F4F089557
S1130930E89409C097FB3EF4909580957095619575
S11309407F4F8F4F9F4F9923A9F0F92F96E9BB272B
S11309509395F695879577956795B795F111F8CFA7
S1130960FAF4BB0F11F460FF1BC06F5F7F4F8F4F12
S11309709F4F16C0882311F096E911C0772321F008
S11309809EE8872F762F05C0662371F096E8862FA0
S113099070E060E02AF09A95660F771F881FDAF7F7
S11309A0880F9695879597F9089597F99F6780E83A
S11309B070E060E008959FEF80EC089500240A94AD
S11309C01616170618060906089500240A94121626
S11309D01306140605060895092E0394000C11F459
S11309E0882352F0BB0F40F4BF2B11F460FF04C006
S11309F06F5F7F4F8F4F9F4F089557FD9058440F5F
S1130A00551F59F05F3F71F04795880F97FB991F69
S1130A1061F09F3F79F08795089512161306140626
S1130A20551FF2CF4695F1DF08C0161617061806B3
S1130A30991FF1CF86957105610508940895E8948E
S1130A40BB2766277727CB0197F908950E943905BC
S1130A500C94EC040E94DE0438F00E94E50420F0BB
S1130A60952311F00C94D5040C94DB0411240C94FC
S1130A7020050E94FD0470F3959FC1F3950F50E08B
S1130A80551F629FF001729FBB27F00DB11D639F3C
S1130A90AA27F00DB11DAA1F649F6627B00DA11DE2
S1130AA0661F829F2227B00DA11D621F739FB00D88
S1130AB0A11D621F839FA00D611D221F749F3327F8
S1130AC0A00D611D231F849F600D211D822F762F91
S1130AD06A2F11249F5750409AF0F1F088234AF06E
S1130AE0EE0FFF1FBB1F661F771F881F91505040DA
S1130AF0A9F79E3F510580F00C94D5040C94200571
S1130B005F3FE4F3983ED4F3869577956795B79560
S1130B10F795E7959F5FC1F7FE2B880F911D96957A
S1130B20879597F90895A1E21A2EAA1BBB1BFD0114
S1130B300DC0AA1FBB1FEE1FFF1FA217B307E407B8
S1130B40F50720F0A21BB30BE40BF50B661F771F10
S1130B50881F991F1A9469F76095709580959095F0
S1130B609B01AC01BD01CF010895FB01DC018D9116
S1130B70019080190110D9F3990B0895F894FFCFCF
S1130B803132333435363738392A3023506C616387
S1130B90652074686520426F776C005072657373CA
S1130BA020636F6F6B28322900436F726E666C612D
S1130BB06B657300526561647900506C61636520F4
S1130BC0426F776C0057656C636F6D65005072659A
S1130BD07373205374617274004C6F77206D696C69
S1130BE06B206C6576656C004D696C6B20486561A3
S1130BF074696E6700696E2050726F636573730069
S1130C0053686F772052464944207461670031323B
S1130C10333435363738393031320053656C6563D7
S1130C2074205468652053697A6500333A20536D03
S1130C30616C6C20343A4C6172676500556E726564
S1110C406769737465726564005573657200AC
S9030000FC
